:1000000010C01FC03AC01DC01CC01BC01AC019C000
:1000100018C017C016C015C014C013C012C011C03C
:1000200010C011241FBECFE5D2E0DEBFCDBF20E05F
:10003000A0E6B0E001C01D92A436B207E1F77FD080
:1000400081C0DECF8AB38F738ABBD59A82E28FBD1F
:100050008AE18EBD82E191E695BD84BD84E096E0A3
:1000600099BD88BD8BB780618BBF979A78940895AE
:100070008E5A9C4F95BD84BD08951F921FB61F9246
:1000800011248F939F93AF93BF9389B387FF15C0BC
:1000900086FF1BC08091600090916100A09162007A
:1000A000B09163000196A11DB11D809360009093F3
:1000B0006100A0936200B0936300BF91AF919F91E4
:1000C0008F911F901FBE1F90189580916000909196
:1000D0006100A0916200B09163000197A109B1098C
:1000E000E4CF589B2AC08091600090916100A0915C
:1000F0006200B09163008C309E4FAF4FBF4FDCF079
:100100008091600090916100A0916200B0916300C5
:10011000853F9140A105B10574F4F8948091600089
:1001200090916100A0916200B09163008C5F994F43
:1001300099BD88BD789481E08BB90895D2CF82DFD4
:08014000D0DFFECFF894FFCFE1
:00000001FF
